{
  "_format": "hh-sol-artifact-1",
  "contractName": "AuctionNFT",
  "sourceName": "contracts/AuctionNFT.sol",
  "abi": [
    {
      "inputs": [
        {
          "internalType": "string",
          "name": "_name",
          "type": "string"
        },
        {
          "internalType": "string",
          "name": "_symbol",
          "type": "string"
        }
      ],
      "stateMutability": "nonpayable",
      "type": "constructor"
    },
    {
      "anonymous": false,
      "inputs": [
        {
          "indexed": true,
          "internalType": "address",
          "name": "owner",
          "type": "address"
        },
        {
          "indexed": true,
          "internalType": "address",
          "name": "approved",
          "type": "address"
        },
        {
          "indexed": true,
          "internalType": "uint256",
          "name": "tokenId",
          "type": "uint256"
        }
      ],
      "name": "Approval",
      "type": "event"
    },
    {
      "anonymous": false,
      "inputs": [
        {
          "indexed": true,
          "internalType": "address",
          "name": "owner",
          "type": "address"
        },
        {
          "indexed": true,
          "internalType": "address",
          "name": "operator",
          "type": "address"
        },
        {
          "indexed": false,
          "internalType": "bool",
          "name": "approved",
          "type": "bool"
        }
      ],
      "name": "ApprovalForAll",
      "type": "event"
    },
    {
      "anonymous": false,
      "inputs": [
        {
          "indexed": true,
          "internalType": "address",
          "name": "previousOwner",
          "type": "address"
        },
        {
          "indexed": true,
          "internalType": "address",
          "name": "newOwner",
          "type": "address"
        }
      ],
      "name": "OwnershipTransferred",
      "type": "event"
    },
    {
      "anonymous": false,
      "inputs": [
        {
          "indexed": true,
          "internalType": "address",
          "name": "from",
          "type": "address"
        },
        {
          "indexed": true,
          "internalType": "address",
          "name": "to",
          "type": "address"
        },
        {
          "indexed": true,
          "internalType": "uint256",
          "name": "tokenId",
          "type": "uint256"
        }
      ],
      "name": "Transfer",
      "type": "event"
    },
    {
      "inputs": [
        {
          "internalType": "address",
          "name": "to",
          "type": "address"
        },
        {
          "internalType": "uint256",
          "name": "tokenId",
          "type": "uint256"
        }
      ],
      "name": "approve",
      "outputs": [],
      "stateMutability": "nonpayable",
      "type": "function"
    },
    {
      "inputs": [
        {
          "internalType": "address",
          "name": "owner",
          "type": "address"
        }
      ],
      "name": "balanceOf",
      "outputs": [
        {
          "internalType": "uint256",
          "name": "",
          "type": "uint256"
        }
      ],
      "stateMutability": "view",
      "type": "function"
    },
    {
      "inputs": [
        {
          "internalType": "uint256",
          "name": "tokenId",
          "type": "uint256"
        }
      ],
      "name": "getApproved",
      "outputs": [
        {
          "internalType": "address",
          "name": "",
          "type": "address"
        }
      ],
      "stateMutability": "view",
      "type": "function"
    },
    {
      "inputs": [
        {
          "internalType": "address",
          "name": "owner",
          "type": "address"
        },
        {
          "internalType": "address",
          "name": "operator",
          "type": "address"
        }
      ],
      "name": "isApprovedForAll",
      "outputs": [
        {
          "internalType": "bool",
          "name": "",
          "type": "bool"
        }
      ],
      "stateMutability": "view",
      "type": "function"
    },
    {
      "inputs": [],
      "name": "name",
      "outputs": [
        {
          "internalType": "string",
          "name": "",
          "type": "string"
        }
      ],
      "stateMutability": "view",
      "type": "function"
    },
    {
      "inputs": [],
      "name": "owner",
      "outputs": [
        {
          "internalType": "address",
          "name": "",
          "type": "address"
        }
      ],
      "stateMutability": "view",
      "type": "function"
    },
    {
      "inputs": [
        {
          "internalType": "uint256",
          "name": "tokenId",
          "type": "uint256"
        }
      ],
      "name": "ownerOf",
      "outputs": [
        {
          "internalType": "address",
          "name": "",
          "type": "address"
        }
      ],
      "stateMutability": "view",
      "type": "function"
    },
    {
      "inputs": [],
      "name": "renounceOwnership",
      "outputs": [],
      "stateMutability": "nonpayable",
      "type": "function"
    },
    {
      "inputs": [
        {
          "internalType": "address",
          "name": "to",
          "type": "address"
        }
      ],
      "name": "safeMint",
      "outputs": [],
      "stateMutability": "nonpayable",
      "type": "function"
    },
    {
      "inputs": [
        {
          "internalType": "address",
          "name": "from",
          "type": "address"
        },
        {
          "internalType": "address",
          "name": "to",
          "type": "address"
        },
        {
          "internalType": "uint256",
          "name": "tokenId",
          "type": "uint256"
        }
      ],
      "name": "safeTransferFrom",
      "outputs": [],
      "stateMutability": "nonpayable",
      "type": "function"
    },
    {
      "inputs": [
        {
          "internalType": "address",
          "name": "from",
          "type": "address"
        },
        {
          "internalType": "address",
          "name": "to",
          "type": "address"
        },
        {
          "internalType": "uint256",
          "name": "tokenId",
          "type": "uint256"
        },
        {
          "internalType": "bytes",
          "name": "data",
          "type": "bytes"
        }
      ],
      "name": "safeTransferFrom",
      "outputs": [],
      "stateMutability": "nonpayable",
      "type": "function"
    },
    {
      "inputs": [
        {
          "internalType": "address",
          "name": "operator",
          "type": "address"
        },
        {
          "internalType": "bool",
          "name": "approved",
          "type": "bool"
        }
      ],
      "name": "setApprovalForAll",
      "outputs": [],
      "stateMutability": "nonpayable",
      "type": "function"
    },
    {
      "inputs": [
        {
          "internalType": "bytes4",
          "name": "interfaceId",
          "type": "bytes4"
        }
      ],
      "name": "supportsInterface",
      "outputs": [
        {
          "internalType": "bool",
          "name": "",
          "type": "bool"
        }
      ],
      "stateMutability": "view",
      "type": "function"
    },
    {
      "inputs": [],
      "name": "symbol",
      "outputs": [
        {
          "internalType": "string",
          "name": "",
          "type": "string"
        }
      ],
      "stateMutability": "view",
      "type": "function"
    },
    {
      "inputs": [
        {
          "internalType": "uint256",
          "name": "tokenId",
          "type": "uint256"
        }
      ],
      "name": "tokenURI",
      "outputs": [
        {
          "internalType": "string",
          "name": "",
          "type": "string"
        }
      ],
      "stateMutability": "view",
      "type": "function"
    },
    {
      "inputs": [
        {
          "internalType": "address",
          "name": "from",
          "type": "address"
        },
        {
          "internalType": "address",
          "name": "to",
          "type": "address"
        },
        {
          "internalType": "uint256",
          "name": "tokenId",
          "type": "uint256"
        }
      ],
      "name": "transferFrom",
      "outputs": [],
      "stateMutability": "nonpayable",
      "type": "function"
    },
    {
      "inputs": [
        {
          "internalType": "address",
          "name": "newOwner",
          "type": "address"
        }
      ],
      "name": "transferOwnership",
      "outputs": [],
      "stateMutability": "nonpayable",
      "type": "function"
    }
  ],
  "bytecode": "0x60806040523480156200001157600080fd5b5060405162002ef038038062002ef08339818101604052810190620000379190620002e8565b818181600090816200004a9190620005b8565b5080600190816200005c9190620005b8565b5050506200007f620000736200008760201b60201c565b6200008f60201b60201c565b50506200069f565b600033905090565b6000600660009054906101000a900473ffffffffffffffffffffffffffffffffffffffff16905081600660006101000a81548173ffffffffffffffffffffffffffffffffffffffff021916908373ffffffffffffffffffffffffffffffffffffffff1602179055508173ffffffffffffffffffffffffffffffffffffffff168173ffffffffffffffffffffffffffffffffffffffff167f8be0079c531659141344cd1fd0a4f28419497f9722a3daafe3b4186f6b6457e060405160405180910390a35050565b6000604051905090565b600080fd5b600080fd5b600080fd5b600080fd5b6000601f19601f8301169050919050565b7f4e487b7100000000000000000000000000000000000000000000000000000000600052604160045260246000fd5b620001be8262000173565b810181811067ffffffffffffffff82111715620001e057620001df62000184565b5b80604052505050565b6000620001f562000155565b9050620002038282620001b3565b919050565b600067ffffffffffffffff82111562000226576200022562000184565b5b620002318262000173565b9050602081019050919050565b60005b838110156200025e57808201518184015260208101905062000241565b60008484015250505050565b6000620002816200027b8462000208565b620001e9565b905082815260208101848484011115620002a0576200029f6200016e565b5b620002ad8482856200023e565b509392505050565b600082601f830112620002cd57620002cc62000169565b5b8151620002df8482602086016200026a565b91505092915050565b600080604083850312156200030257620003016200015f565b5b600083015167ffffffffffffffff81111562000323576200032262000164565b5b6200033185828601620002b5565b925050602083015167ffffffffffffffff81111562000355576200035462000164565b5b6200036385828601620002b5565b9150509250929050565b600081519050919050565b7f4e487b7100000000000000000000000000000000000000000000000000000000600052602260045260246000fd5b60006002820490506001821680620003c057607f821691505b602082108103620003d657620003d562000378565b5b50919050565b60008190508160005260206000209050919050565b60006020601f8301049050919050565b600082821b905092915050565b600060088302620004407fffffffffffffffffffffffffffffffffffffffffffffffffffffffffffffffff8262000401565b6200044c868362000401565b95508019841693508086168417925050509392505050565b6000819050919050565b6000819050919050565b600062000499620004936200048d8462000464565b6200046e565b62000464565b9050919050565b6000819050919050565b620004b58362000478565b620004cd620004c482620004a0565b8484546200040e565b825550505050565b600090565b620004e4620004d5565b620004f1818484620004aa565b505050565b5b8181101562000519576200050d600082620004da565b600181019050620004f7565b5050565b601f82111562000568576200053281620003dc565b6200053d84620003f1565b810160208510156200054d578190505b620005656200055c85620003f1565b830182620004f6565b50505b505050565b600082821c905092915050565b60006200058d600019846008026200056d565b1980831691505092915050565b6000620005a883836200057a565b9150826002028217905092915050565b620005c3826200036d565b67ffffffffffffffff811115620005df57620005de62000184565b5b620005eb8254620003a7565b620005f88282856200051d565b600060209050601f8311600181146200063057600084156200061b578287015190505b6200062785826200059a565b86555062000697565b601f1984166200064086620003dc565b60005b828110156200066a5784890151825560018201915060208501945060208101905062000643565b868310156200068a578489015162000686601f8916826200057a565b8355505b6001600288020188555050505b505050505050565b61284180620006af6000396000f3fe608060405234801561001057600080fd5b506004361061010b5760003560e01c806370a08231116100a2578063a22cb46511610071578063a22cb465146102a4578063b88d4fde146102c0578063c87b56dd146102dc578063e985e9c51461030c578063f2fde38b1461033c5761010b565b806370a082311461022e578063715018a61461025e5780638da5cb5b1461026857806395d89b41146102865761010b565b806323b872dd116100de57806323b872dd146101aa57806340d097c3146101c657806342842e0e146101e25780636352211e146101fe5761010b565b806301ffc9a71461011057806306fdde0314610140578063081812fc1461015e578063095ea7b31461018e575b600080fd5b61012a60048036038101906101259190611a3f565b610358565b6040516101379190611a87565b60405180910390f35b61014861043a565b6040516101559190611b32565b60405180910390f35b61017860048036038101906101739190611b8a565b6104cc565b6040516101859190611bf8565b60405180910390f35b6101a860048036038101906101a39190611c3f565b610512565b005b6101c460048036038101906101bf9190611c7f565b610629565b005b6101e060048036038101906101db9190611cd2565b610689565b005b6101fc60048036038101906101f79190611c7f565b61069d565b005b61021860048036038101906102139190611b8a565b6106bd565b6040516102259190611bf8565b60405180910390f35b61024860048036038101906102439190611cd2565b610743565b6040516102559190611d0e565b60405180910390f35b6102666107fa565b005b61027061080e565b60405161027d9190611bf8565b60405180910390f35b61028e610838565b60405161029b9190611b32565b60405180910390f35b6102be60048036038101906102b99190611d55565b6108ca565b005b6102da60048036038101906102d59190611eca565b6108e0565b005b6102f660048036038101906102f19190611b8a565b610942565b6040516103039190611b32565b60405180910390f35b61032660048036038101906103219190611f4d565b6109aa565b6040516103339190611a87565b60405180910390f35b61035660048036038101906103519190611cd2565b610a3e565b005b60007f80ac58cd000000000000000000000000000000000000000000000000000000007bffffffffffffffffffffffffffffffffffffffffffffffffffffffff1916827bffffffffffffffffffffffffffffffffffffffffffffffffffffffff1916148061042357507f5b5e139f000000000000000000000000000000000000000000000000000000007bffffffffffffffffffffffffffffffffffffffffffffffffffffffff1916827bffffffffffffffffffffffffffffffffffffffffffffffffffffffff1916145b80610433575061043282610ac1565b5b9050919050565b60606000805461044990611fbc565b80601f016020809104026020016040519081016040528092919081815260200182805461047590611fbc565b80156104c25780601f10610497576101008083540402835291602001916104c2565b820191906000526020600020905b8154815290600101906020018083116104a557829003601f168201915b5050505050905090565b60006104d782610b2b565b6004600083815260200190815260200160002060009054906101000a900473ffffffffffffffffffffffffffffffffffffffff169050919050565b600061051d826106bd565b90508073ffffffffffffffffffffffffffffffffffffffff168373ffffffffffffffffffffffffffffffffffffffff160361058d576040517f08c379a00000000000000000000000000000000000000000000000000000000081526004016105849061205f565b60405180910390fd5b8073ffffffffffffffffffffffffffffffffffffffff166105ac610b76565b73ffffffffffffffffffffffffffffffffffffffff1614806105db57506105da816105d5610b76565b6109aa565b5b61061a576040517f08c379a0000000000000000000000000000000000000000000000000000000008152600401610611906120f1565b60405180910390fd5b6106248383610b7e565b505050565b61063a610634610b76565b82610c37565b610679576040517f08c379a000000000000000000000000000000000000000000000000000000000815260040161067090612183565b60405180910390fd5b610684838383610ccc565b505050565b6000601490506106998282610fc5565b5050565b6106b8838383604051806020016040528060008152506108e0565b505050565b6000806106c983610fe3565b9050600073ffffffffffffffffffffffffffffffffffffffff168173ffffffffffffffffffffffffffffffffffffffff160361073a576040517f08c379a0000000000000000000000000000000000000000000000000000000008152600401610731906121ef565b60405180910390fd5b80915050919050565b60008073ffffffffffffffffffffffffffffffffffffffff168273ffffffffffffffffffffffffffffffffffffffff16036107b3576040517f08c379a00000000000000000000000000000000000000000000000000000000081526004016107aa90612281565b60405180910390fd5b600360008373ffffffffffffffffffffffffffffffffffffffff1673ffffffffffffffffffffffffffffffffffffffff168152602001908152602001600020549050919050565b610802611020565b61080c600061109e565b565b6000600660009054906101000a900473ffffffffffffffffffffffffffffffffffffffff16905090565b60606001805461084790611fbc565b80601f016020809104026020016040519081016040528092919081815260200182805461087390611fbc565b80156108c05780601f10610895576101008083540402835291602001916108c0565b820191906000526020600020905b8154815290600101906020018083116108a357829003601f168201915b5050505050905090565b6108dc6108d5610b76565b8383611164565b5050565b6108f16108eb610b76565b83610c37565b610930576040517f08c379a000000000000000000000000000000000000000000000000000000000815260040161092790612183565b60405180910390fd5b61093c848484846112d0565b50505050565b606061094d82610b2b565b600061095761132c565b9050600081511161097757604051806020016040528060008152506109a2565b8061098184611343565b6040516020016109929291906122dd565b6040516020818303038152906040525b915050919050565b6000600560008473ffffffffffffffffffffffffffffffffffffffff1673ffffffffffffffffffffffffffffffffffffffff16815260200190815260200160002060008373ffffffffffffffffffffffffffffffffffffffff1673ffffffffffffffffffffffffffffffffffffffff16815260200190815260200160002060009054906101000a900460ff16905092915050565b610a46611020565b600073ffffffffffffffffffffffffffffffffffffffff168173ffffffffffffffffffffffffffffffffffffffff1603610ab5576040517f08c379a0000000000000000000000000000000000000000000000000000000008152600401610aac90612373565b60405180910390fd5b610abe8161109e565b50565b60007f01ffc9a7000000000000000000000000000000000000000000000000000000007bffffffffffffffffffffffffffffffffffffffffffffffffffffffff1916827bffffffffffffffffffffffffffffffffffffffffffffffffffffffff1916149050919050565b610b3481611411565b610b73576040517f08c379a0000000000000000000000000000000000000000000000000000000008152600401610b6a906121ef565b60405180910390fd5b50565b600033905090565b816004600083815260200190815260200160002060006101000a81548173ffffffffffffffffffffffffffffffffffffffff021916908373ffffffffffffffffffffffffffffffffffffffff160217905550808273ffffffffffffffffffffffffffffffffffffffff16610bf1836106bd565b73ffffffffffffffffffffffffffffffffffffffff167f8c5be1e5ebec7d5bd14f71427d1e84f3dd0314c0f7b2291e5b200ac8c7c3b92560405160405180910390a45050565b600080610c43836106bd565b90508073ffffffffffffffffffffffffffffffffffffffff168473ffffffffffffffffffffffffffffffffffffffff161480610c855750610c8481856109aa565b5b80610cc357508373ffffffffffffffffffffffffffffffffffffffff16610cab846104cc565b73ffffffffffffffffffffffffffffffffffffffff16145b91505092915050565b8273ffffffffffffffffffffffffffffffffffffffff16610cec826106bd565b73ffffffffffffffffffffffffffffffffffffffff1614610d42576040517f08c379a0000000000000000000000000000000000000000000000000000000008152600401610d3990612405565b60405180910390fd5b600073ffffffffffffffffffffffffffffffffffffffff168273ffffffffffffffffffffffffffffffffffffffff1603610db1576040517f08c379a0000000000000000000000000000000000000000000000000000000008152600401610da890612497565b60405180910390fd5b610dbe8383836001611452565b8273ffffffffffffffffffffffffffffffffffffffff16610dde826106bd565b73ffffffffffffffffffffffffffffffffffffffff1614610e34576040517f08c379a0000000000000000000000000000000000000000000000000000000008152600401610e2b90612405565b60405180910390fd5b6004600082815260200190815260200160002060006101000a81549073ffffffffffffffffffffffffffffffffffffffff02191690556001600360008573ffffffffffffffffffffffffffffffffffffffff1673ffffffffffffffffffffffffffffffffffffffff168152602001908152602001600020600082825403925050819055506001600360008473ffffffffffffffffffffffffffffffffffffffff1673ffffffffffffffffffffffffffffffffffffffff16815260200190815260200160002060008282540192505081905550816002600083815260200190815260200160002060006101000a81548173ffffffffffffffffffffffffffffffffffffffff021916908373ffffffffffffffffffffffffffffffffffffffff160217905550808273ffffffffffffffffffffffffffffffffffffffff168473ffffffffffffffffffffffffffffffffffffffff167fddf252ad1be2c89b69c2b068fc378daa952ba7f163c4a11628f55a4df523b3ef60405160405180910390a4610fc08383836001611458565b505050565b610fdf82826040518060200160405280600081525061145e565b5050565b60006002600083815260200190815260200160002060009054906101000a900473ffffffffffffffffffffffffffffffffffffffff169050919050565b611028610b76565b73ffffffffffffffffffffffffffffffffffffffff1661104661080e565b73ffffffffffffffffffffffffffffffffffffffff161461109c576040517f08c379a000000000000000000000000000000000000000000000000000000000815260040161109390612503565b60405180910390fd5b565b6000600660009054906101000a900473ffffffffffffffffffffffffffffffffffffffff16905081600660006101000a81548173ffffffffffffffffffffffffffffffffffffffff021916908373ffffffffffffffffffffffffffffffffffffffff1602179055508173ffffffffffffffffffffffffffffffffffffffff168173ffffffffffffffffffffffffffffffffffffffff167f8be0079c531659141344cd1fd0a4f28419497f9722a3daafe3b4186f6b6457e060405160405180910390a35050565b8173ffffffffffffffffffffffffffffffffffffffff168373ffffffffffffffffffffffffffffffffffffffff16036111d2576040517f08c379a00000000000000000000000000000000000000000000000000000000081526004016111c99061256f565b60405180910390fd5b80600560008573ffffffffffffffffffffffffffffffffffffffff1673ffffffffffffffffffffffffffffffffffffffff16815260200190815260200160002060008473ffffffffffffffffffffffffffffffffffffffff1673ffffffffffffffffffffffffffffffffffffffff16815260200190815260200160002060006101000a81548160ff0219169083151502179055508173ffffffffffffffffffffffffffffffffffffffff168373ffffffffffffffffffffffffffffffffffffffff167f17307eab39ab6107e8899845ad3d59bd9653f200f220920489ca2b5937696c31836040516112c39190611a87565b60405180910390a3505050565b6112db848484610ccc565b6112e7848484846114b9565b611326576040517f08c379a000000000000000000000000000000000000000000000000000000000815260040161131d90612601565b60405180910390fd5b50505050565b606060405180602001604052806000815250905090565b60606000600161135284611640565b01905060008167ffffffffffffffff81111561137157611370611d9f565b5b6040519080825280601f01601f1916602001820160405280156113a35781602001600182028036833780820191505090505b509050600082602001820190505b600115611406578080600190039150507f3031323334353637383961626364656600000000000000000000000000000000600a86061a8153600a85816113fa576113f9612621565b5b049450600085036113b1575b819350505050919050565b60008073ffffffffffffffffffffffffffffffffffffffff1661143383610fe3565b73ffffffffffffffffffffffffffffffffffffffff1614159050919050565b50505050565b50505050565b6114688383611793565b61147560008484846114b9565b6114b4576040517f08c379a00000000000000000000000000000000000000000000000000000000081526004016114ab90612601565b60405180910390fd5b505050565b60006114da8473ffffffffffffffffffffffffffffffffffffffff166119b0565b15611633578373ffffffffffffffffffffffffffffffffffffffff1663150b7a02611503610b76565b8786866040518563ffffffff1660e01b815260040161152594939291906126a5565b6020604051808303816000875af192505050801561156157506040513d601f19601f8201168201806040525081019061155e9190612706565b60015b6115e3573d8060008114611591576040519150601f19603f3d011682016040523d82523d6000602084013e611596565b606091505b5060008151036115db576040517f08c379a00000000000000000000000000000000000000000000000000000000081526004016115d290612601565b60405180910390fd5b805181602001fd5b63150b7a0260e01b7bffffffffffffffffffffffffffffffffffffffffffffffffffffffff1916817bffffffffffffffffffffffffffffffffffffffffffffffffffffffff191614915050611638565b600190505b949350505050565b600080600090507a184f03e93ff9f4daa797ed6e38ed64bf6a1f010000000000000000831061169e577a184f03e93ff9f4daa797ed6e38ed64bf6a1f010000000000000000838161169457611693612621565b5b0492506040810190505b6d04ee2d6d415b85acef810000000083106116db576d04ee2d6d415b85acef810000000083816116d1576116d0612621565b5b0492506020810190505b662386f26fc10000831061170a57662386f26fc100008381611700576116ff612621565b5b0492506010810190505b6305f5e1008310611733576305f5e100838161172957611728612621565b5b0492506008810190505b612710831061175857612710838161174e5761174d612621565b5b0492506004810190505b6064831061177b576064838161177157611770612621565b5b0492506002810190505b600a831061178a576001810190505b80915050919050565b600073ffffffffffffffffffffffffffffffffffffffff168273ffffffffffffffffffffffffffffffffffffffff1603611802576040517f08c379a00000000000000000000000000000000000000000000000000000000081526004016117f99061277f565b60405180910390fd5b61180b81611411565b1561184b576040517f08c379a0000000000000000000000000000000000000000000000000000000008152600401611842906127eb565b60405180910390fd5b611859600083836001611452565b61186281611411565b156118a2576040517f08c379a0000000000000000000000000000000000000000000000000000000008152600401611899906127eb565b60405180910390fd5b6001600360008473ffffffffffffffffffffffffffffffffffffffff1673ffffffffffffffffffffffffffffffffffffffff16815260200190815260200160002060008282540192505081905550816002600083815260200190815260200160002060006101000a81548173ffffffffffffffffffffffffffffffffffffffff021916908373ffffffffffffffffffffffffffffffffffffffff160217905550808273ffffffffffffffffffffffffffffffffffffffff16600073ffffffffffffffffffffffffffffffffffffffff167fddf252ad1be2c89b69c2b068fc378daa952ba7f163c4a11628f55a4df523b3ef60405160405180910390a46119ac600083836001611458565b5050565b6000808273ffffffffffffffffffffffffffffffffffffffff163b119050919050565b6000604051905090565b600080fd5b600080fd5b60007fffffffff0000000000000000000000000000000000000000000000000000000082169050919050565b611a1c816119e7565b8114611a2757600080fd5b50565b600081359050611a3981611a13565b92915050565b600060208284031215611a5557611a546119dd565b5b6000611a6384828501611a2a565b91505092915050565b60008115159050919050565b611a8181611a6c565b82525050565b6000602082019050611a9c6000830184611a78565b92915050565b600081519050919050565b600082825260208201905092915050565b60005b83811015611adc578082015181840152602081019050611ac1565b60008484015250505050565b6000601f19601f8301169050919050565b6000611b0482611aa2565b611b0e8185611aad565b9350611b1e818560208601611abe565b611b2781611ae8565b840191505092915050565b60006020820190508181036000830152611b4c8184611af9565b905092915050565b6000819050919050565b611b6781611b54565b8114611b7257600080fd5b50565b600081359050611b8481611b5e565b92915050565b600060208284031215611ba057611b9f6119dd565b5b6000611bae84828501611b75565b91505092915050565b600073ffffffffffffffffffffffffffffffffffffffff82169050919050565b6000611be282611bb7565b9050919050565b611bf281611bd7565b82525050565b6000602082019050611c0d6000830184611be9565b92915050565b611c1c81611bd7565b8114611c2757600080fd5b50565b600081359050611c3981611c13565b92915050565b60008060408385031215611c5657611c556119dd565b5b6000611c6485828601611c2a565b9250506020611c7585828601611b75565b9150509250929050565b600080600060608486031215611c9857611c976119dd565b5b6000611ca686828701611c2a565b9350506020611cb786828701611c2a565b9250506040611cc886828701611b75565b9150509250925092565b600060208284031215611ce857611ce76119dd565b5b6000611cf684828501611c2a565b91505092915050565b611d0881611b54565b82525050565b6000602082019050611d236000830184611cff565b92915050565b611d3281611a6c565b8114611d3d57600080fd5b50565b600081359050611d4f81611d29565b92915050565b60008060408385031215611d6c57611d6b6119dd565b5b6000611d7a85828601611c2a565b9250506020611d8b85828601611d40565b9150509250929050565b600080fd5b600080fd5b7f4e487b7100000000000000000000000000000000000000000000000000000000600052604160045260246000fd5b611dd782611ae8565b810181811067ffffffffffffffff82111715611df657611df5611d9f565b5b80604052505050565b6000611e096119d3565b9050611e158282611dce565b919050565b600067ffffffffffffffff821115611e3557611e34611d9f565b5b611e3e82611ae8565b9050602081019050919050565b82818337600083830152505050565b6000611e6d611e6884611e1a565b611dff565b905082815260208101848484011115611e8957611e88611d9a565b5b611e94848285611e4b565b509392505050565b600082601f830112611eb157611eb0611d95565b5b8135611ec1848260208601611e5a565b91505092915050565b60008060008060808587031215611ee457611ee36119dd565b5b6000611ef287828801611c2a565b9450506020611f0387828801611c2a565b9350506040611f1487828801611b75565b925050606085013567ffffffffffffffff811115611f3557611f346119e2565b5b611f4187828801611e9c565b91505092959194509250565b60008060408385031215611f6457611f636119dd565b5b6000611f7285828601611c2a565b9250506020611f8385828601611c2a565b9150509250929050565b7f4e487b7100000000000000000000000000000000000000000000000000000000600052602260045260246000fd5b60006002820490506001821680611fd457607f821691505b602082108103611fe757611fe6611f8d565b5b50919050565b7f4552433732313a20617070726f76616c20746f2063757272656e74206f776e6560008201527f7200000000000000000000000000000000000000000000000000000000000000602082015250565b6000612049602183611aad565b915061205482611fed565b604082019050919050565b600060208201905081810360008301526120788161203c565b9050919050565b7f4552433732313a20617070726f76652063616c6c6572206973206e6f7420746f60008201527f6b656e206f776e6572206f7220617070726f76656420666f7220616c6c000000602082015250565b60006120db603d83611aad565b91506120e68261207f565b604082019050919050565b6000602082019050818103600083015261210a816120ce565b9050919050565b7f4552433732313a2063616c6c6572206973206e6f7420746f6b656e206f776e6560008201527f72206f7220617070726f76656400000000000000000000000000000000000000602082015250565b600061216d602d83611aad565b915061217882612111565b604082019050919050565b6000602082019050818103600083015261219c81612160565b9050919050565b7f4552433732313a20696e76616c696420746f6b656e2049440000000000000000600082015250565b60006121d9601883611aad565b91506121e4826121a3565b602082019050919050565b60006020820190508181036000830152612208816121cc565b9050919050565b7f4552433732313a2061646472657373207a65726f206973206e6f74206120766160008201527f6c6964206f776e65720000000000000000000000000000000000000000000000602082015250565b600061226b602983611aad565b91506122768261220f565b604082019050919050565b6000602082019050818103600083015261229a8161225e565b9050919050565b600081905092915050565b60006122b782611aa2565b6122c181856122a1565b93506122d1818560208601611abe565b80840191505092915050565b60006122e982856122ac565b91506122f582846122ac565b91508190509392505050565b7f4f776e61626c653a206e6577206f776e657220697320746865207a65726f206160008201527f6464726573730000000000000000000000000000000000000000000000000000602082015250565b600061235d602683611aad565b915061236882612301565b604082019050919050565b6000602082019050818103600083015261238c81612350565b9050919050565b7f4552433732313a207472616e736665722066726f6d20696e636f72726563742060008201527f6f776e6572000000000000000000000000000000000000000000000000000000602082015250565b60006123ef602583611aad565b91506123fa82612393565b604082019050919050565b6000602082019050818103600083015261241e816123e2565b9050919050565b7f4552433732313a207472616e7366657220746f20746865207a65726f2061646460008201527f7265737300000000000000000000000000000000000000000000000000000000602082015250565b6000612481602483611aad565b915061248c82612425565b604082019050919050565b600060208201905081810360008301526124b081612474565b9050919050565b7f4f776e61626c653a2063616c6c6572206973206e6f7420746865206f776e6572600082015250565b60006124ed602083611aad565b91506124f8826124b7565b602082019050919050565b6000602082019050818103600083015261251c816124e0565b9050919050565b7f4552433732313a20617070726f766520746f2063616c6c657200000000000000600082015250565b6000612559601983611aad565b915061256482612523565b602082019050919050565b600060208201905081810360008301526125888161254c565b9050919050565b7f4552433732313a207472616e7366657220746f206e6f6e20455243373231526560008201527f63656976657220696d706c656d656e7465720000000000000000000000000000602082015250565b60006125eb603283611aad565b91506125f68261258f565b604082019050919050565b6000602082019050818103600083015261261a816125de565b9050919050565b7f4e487b7100000000000000000000000000000000000000000000000000000000600052601260045260246000fd5b600081519050919050565b600082825260208201905092915050565b600061267782612650565b612681818561265b565b9350612691818560208601611abe565b61269a81611ae8565b840191505092915050565b60006080820190506126ba6000830187611be9565b6126c76020830186611be9565b6126d46040830185611cff565b81810360608301526126e6818461266c565b905095945050505050565b60008151905061270081611a13565b92915050565b60006020828403121561271c5761271b6119dd565b5b600061272a848285016126f1565b91505092915050565b7f4552433732313a206d696e7420746f20746865207a65726f2061646472657373600082015250565b6000612769602083611aad565b915061277482612733565b602082019050919050565b600060208201905081810360008301526127988161275c565b9050919050565b7f4552433732313a20746f6b656e20616c7265616479206d696e74656400000000600082015250565b60006127d5601c83611aad565b91506127e08261279f565b602082019050919050565b60006020820190508181036000830152612804816127c8565b905091905056fea2646970667358221220158cda7cf297751e3914e18f0b8489429194e1cb56ecb514cee82dbf69c1f5dd64736f6c63430008120033",
  "linkReferences": {},
  "deployedLinkReferences": {}
}