{
  "_format": "hh-sol-artifact-1",
  "contractName": "Auction",
  "sourceName": "contracts/Auction.sol",
  "abi": [
    {
      "inputs": [
        {
          "internalType": "address",
          "name": "_nft",
          "type": "address"
        },
        {
          "internalType": "uint256",
          "name": "_nftId",
          "type": "uint256"
        },
        {
          "internalType": "uint256",
          "name": "_startingPrice",
          "type": "uint256"
        },
        {
          "internalType": "uint256",
          "name": "_biddingTime",
          "type": "uint256"
        },
        {
          "internalType": "address",
          "name": "_seller",
          "type": "address"
        }
      ],
      "stateMutability": "nonpayable",
      "type": "constructor"
    },
    {
      "inputs": [],
      "name": "AuctionTimeOn",
      "outputs": [
        {
          "internalType": "bool",
          "name": "",
          "type": "bool"
        }
      ],
      "stateMutability": "view",
      "type": "function"
    },
    {
      "inputs": [],
      "name": "bid",
      "outputs": [],
      "stateMutability": "payable",
      "type": "function"
    },
    {
      "inputs": [],
      "name": "endAuction",
      "outputs": [],
      "stateMutability": "payable",
      "type": "function"
    },
    {
      "inputs": [],
      "name": "highestBid",
      "outputs": [
        {
          "internalType": "uint256",
          "name": "",
          "type": "uint256"
        }
      ],
      "stateMutability": "view",
      "type": "function"
    },
    {
      "inputs": [],
      "name": "highestBidder",
      "outputs": [
        {
          "internalType": "address",
          "name": "",
          "type": "address"
        }
      ],
      "stateMutability": "view",
      "type": "function"
    },
    {
      "inputs": [],
      "name": "nft",
      "outputs": [
        {
          "internalType": "contract IERC721",
          "name": "",
          "type": "address"
        }
      ],
      "stateMutability": "view",
      "type": "function"
    },
    {
      "inputs": [],
      "name": "nftId",
      "outputs": [
        {
          "internalType": "uint256",
          "name": "",
          "type": "uint256"
        }
      ],
      "stateMutability": "view",
      "type": "function"
    },
    {
      "inputs": [
        {
          "internalType": "address",
          "name": "",
          "type": "address"
        }
      ],
      "name": "returnOutBids",
      "outputs": [
        {
          "internalType": "bool",
          "name": "bidded",
          "type": "bool"
        },
        {
          "internalType": "uint256",
          "name": "amount",
          "type": "uint256"
        }
      ],
      "stateMutability": "view",
      "type": "function"
    },
    {
      "inputs": [],
      "name": "seller",
      "outputs": [
        {
          "internalType": "address",
          "name": "",
          "type": "address"
        }
      ],
      "stateMutability": "view",
      "type": "function"
    },
    {
      "inputs": [],
      "name": "startAuction",
      "outputs": [],
      "stateMutability": "nonpayable",
      "type": "function"
    },
    {
      "inputs": [],
      "name": "startingPrice",
      "outputs": [
        {
          "internalType": "uint256",
          "name": "",
          "type": "uint256"
        }
      ],
      "stateMutability": "view",
      "type": "function"
    },
    {
      "inputs": [
        {
          "internalType": "uint256",
          "name": "_biddingTime",
          "type": "uint256"
        }
      ],
      "name": "updateAuctionTime",
      "outputs": [],
      "stateMutability": "nonpayable",
      "type": "function"
    },
    {
      "inputs": [
        {
          "internalType": "uint256",
          "name": "_startingPrice",
          "type": "uint256"
        }
      ],
      "name": "updateStartingPrice",
      "outputs": [],
      "stateMutability": "nonpayable",
      "type": "function"
    },
    {
      "inputs": [],
      "name": "withdrawOutBids",
      "outputs": [
        {
          "internalType": "bool",
          "name": "success",
          "type": "bool"
        }
      ],
      "stateMutability": "payable",
      "type": "function"
    }
  ],
  "bytecode": "0x60806040523480156200001157600080fd5b50604051620017ab380380620017ab83398181016040528101906200003791906200018b565b84600460006101000a81548173ffffffffffffffffffffffffffffffffffffffff021916908373ffffffffffffffffffffffffffffffffffffffff1602179055508360058190555080600260006101000a81548173ffffffffffffffffffffffffffffffffffffffff021916908373ffffffffffffffffffffffffffffffffffffffff160217905550826000819055508142620000d5919062000242565b60078190555050505050506200027d565b600080fd5b600073ffffffffffffffffffffffffffffffffffffffff82169050919050565b60006200011882620000eb565b9050919050565b6200012a816200010b565b81146200013657600080fd5b50565b6000815190506200014a816200011f565b92915050565b6000819050919050565b620001658162000150565b81146200017157600080fd5b50565b60008151905062000185816200015a565b92915050565b600080600080600060a08688031215620001aa57620001a9620000e6565b5b6000620001ba8882890162000139565b9550506020620001cd8882890162000174565b9450506040620001e08882890162000174565b9350506060620001f38882890162000174565b9250506080620002068882890162000139565b9150509295509295909350565b7f4e487b7100000000000000000000000000000000000000000000000000000000600052601160045260246000fd5b60006200024f8262000150565b91506200025c8362000150565b925082820190508082111562000277576200027662000213565b5b92915050565b61151e806200028d6000396000f3fe6080604052600436106100dd5760003560e01c806391f901571161007f578063d6a1049311610059578063d6a1049314610261578063d6fbf2021461028a578063f6d3dec2146102b5578063fe67a54b146102de576100dd565b806391f90157146101e0578063c6bc51821461020b578063d57bde7914610236576100dd565b8063392ec493116100bb578063392ec4931461014257806347ccca02146101805780636b64c769146101ab5780638c25666b146101c2576100dd565b80630106b187146100e257806308551a531461010d5780631998aeef14610138575b600080fd5b3480156100ee57600080fd5b506100f76102e8565b6040516101049190610dd4565b60405180910390f35b34801561011957600080fd5b506101226102fb565b60405161012f9190610e30565b60405180910390f35b610140610321565b005b34801561014e57600080fd5b5061016960048036038101906101649190610e7c565b610789565b604051610177929190610ec2565b60405180910390f35b34801561018c57600080fd5b506101956107ba565b6040516101a29190610f4a565b60405180910390f35b3480156101b757600080fd5b506101c06107e0565b005b6101ca610890565b6040516101d79190610dd4565b60405180910390f35b3480156101ec57600080fd5b506101f5610a73565b6040516102029190610e30565b60405180910390f35b34801561021757600080fd5b50610220610a99565b60405161022d9190610f65565b60405180910390f35b34801561024257600080fd5b5061024b610a9f565b6040516102589190610f65565b60405180910390f35b34801561026d57600080fd5b5061028860048036038101906102839190610fac565b610aa5565b005b34801561029657600080fd5b5061029f610b05565b6040516102ac9190610f65565b60405180910390f35b3480156102c157600080fd5b506102dc60048036038101906102d79190610fac565b610b0b565b005b6102e6610b6b565b005b600660009054906101000a900460ff1681565b600260009054906101000a900473ffffffffffffffffffffffffffffffffffffffff1681565b4260075410610365576040517f08c379a000000000000000000000000000000000000000000000000000000000815260040161035c90611036565b60405180910390fd5b60011515600660009054906101000a900460ff161515146103bb576040517f08c379a00000000000000000000000000000000000000000000000000000000081526004016103b2906110a2565b60405180910390fd5b600260009054906101000a900473ffffffffffffffffffffffffffffffffffffffff1673ffffffffffffffffffffffffffffffffffffffff163373ffffffffffffffffffffffffffffffffffffffff160361044b576040517f08c379a000000000000000000000000000000000000000000000000000000000815260040161044290611134565b60405180910390fd5b6000341161048e576040517f08c379a0000000000000000000000000000000000000000000000000000000008152600401610485906111a0565b60405180910390fd5b6000543410156104d3576040517f08c379a00000000000000000000000000000000000000000000000000000000081526004016104ca90611232565b60405180910390fd5b6000600154036105ac5734600160008282546104ef9190611281565b9250508190555033600360006101000a81548173ffffffffffffffffffffffffffffffffffffffff021916908373ffffffffffffffffffffffffffffffffffffffff16021790555060015460086000600360009054906101000a900473ffffffffffffffffffffffffffffffffffffffff1673ffffffffffffffffffffffffffffffffffffffff1673ffffffffffffffffffffffffffffffffffffffff168152602001908152602001600020600101819055506001546000819055505b6001543411156106735760015460086000600360009054906101000a900473ffffffffffffffffffffffffffffffffffffffff1673ffffffffffffffffffffffffffffffffffffffff1673ffffffffffffffffffffffffffffffffffffffff168152602001908152602001600020600101819055503460018190555033600360006101000a81548173ffffffffffffffffffffffffffffffffffffffff021916908373ffffffffffffffffffffffffffffffffffffffff1602179055506001546000819055505b6001543410156106ce5734600860003373ffffffffffffffffffffffffffffffffffffffff1673ffffffffffffffffffffffffffffffffffffffff168152602001908152602001600020600101819055506001546000819055505b6000600860003373ffffffffffffffffffffffffffffffffffffffff1673ffffffffffffffffffffffffffffffffffffffff1681526020019081526020016000209050600015158160000160009054906101000a900460ff16151514610769576040517f08c379a000000000000000000000000000000000000000000000000000000000815260040161076090611327565b60405180910390fd5b60018160000160006101000a81548160ff02191690831515021790555050565b60086020528060005260406000206000915090508060000160009054906101000a900460ff16908060010154905082565b600460009054906101000a900473ffffffffffffffffffffffffffffffffffffffff1681565b6001600660006101000a81548160ff021916908315150217905550600460009054906101000a900473ffffffffffffffffffffffffffffffffffffffff1673ffffffffffffffffffffffffffffffffffffffff166323b872dd33306005546040518463ffffffff1660e01b815260040161085c93929190611347565b600060405180830381600087803b15801561087657600080fd5b505af115801561088a573d6000803e3d6000fd5b50505050565b6000801515600660009054906101000a900460ff161515146108e7576040517f08c379a00000000000000000000000000000000000000000000000000000000081526004016108de906113ca565b60405180910390fd5b6000600860003373ffffffffffffffffffffffffffffffffffffffff1673ffffffffffffffffffffffffffffffffffffffff16815260200190815260200160002060010154905060008111610971576040517f08c379a00000000000000000000000000000000000000000000000000000000081526004016109689061145c565b60405180910390fd5b6000600860003373ffffffffffffffffffffffffffffffffffffffff1673ffffffffffffffffffffffffffffffffffffffff16815260200190815260200160002060010181905550600073ffffffffffffffffffffffffffffffffffffffff163373ffffffffffffffffffffffffffffffffffffffff1603610a28576040517f08c379a0000000000000000000000000000000000000000000000000000000008152600401610a1f906114c8565b60405180910390fd5b3373ffffffffffffffffffffffffffffffffffffffff166108fc829081150290604051600060405180830381858888f19350505050158015610a6e573d6000803e3d6000fd5b505090565b600360009054906101000a900473ffffffffffffffffffffffffffffffffffffffff1681565b60055481565b60015481565b60001515600660009054906101000a900460ff16151514610afb576040517f08c379a0000000000000000000000000000000000000000000000000000000008152600401610af2906113ca565b60405180910390fd5b8060078190555050565b60005481565b60001515600660009054906101000a900460ff16151514610b61576040517f08c379a0000000000000000000000000000000000000000000000000000000008152600401610b58906113ca565b60405180910390fd5b8060008190555050565b6000600660006101000a81548160ff021916908315150217905550600073ffffffffffffffffffffffffffffffffffffffff16600360009054906101000a900473ffffffffffffffffffffffffffffffffffffffff1673ffffffffffffffffffffffffffffffffffffffff1614610d0157600460009054906101000a900473ffffffffffffffffffffffffffffffffffffffff1673ffffffffffffffffffffffffffffffffffffffff166342842e0e30600360009054906101000a900473ffffffffffffffffffffffffffffffffffffffff166005546040518463ffffffff1660e01b8152600401610c5f93929190611347565b600060405180830381600087803b158015610c7957600080fd5b505af1158015610c8d573d6000803e3d6000fd5b50505050600260009054906101000a900473ffffffffffffffffffffffffffffffffffffffff1673ffffffffffffffffffffffffffffffffffffffff166108fc6001549081150290604051600060405180830381858888f19350505050158015610cfb573d6000803e3d6000fd5b50610db7565b600460009054906101000a900473ffffffffffffffffffffffffffffffffffffffff1673ffffffffffffffffffffffffffffffffffffffff166342842e0e30600260009054906101000a900473ffffffffffffffffffffffffffffffffffffffff166005546040518463ffffffff1660e01b8152600401610d8493929190611347565b600060405180830381600087803b158015610d9e57600080fd5b505af1158015610db2573d6000803e3d6000fd5b505050505b565b60008115159050919050565b610dce81610db9565b82525050565b6000602082019050610de96000830184610dc5565b92915050565b600073ffffffffffffffffffffffffffffffffffffffff82169050919050565b6000610e1a82610def565b9050919050565b610e2a81610e0f565b82525050565b6000602082019050610e456000830184610e21565b92915050565b600080fd5b610e5981610e0f565b8114610e6457600080fd5b50565b600081359050610e7681610e50565b92915050565b600060208284031215610e9257610e91610e4b565b5b6000610ea084828501610e67565b91505092915050565b6000819050919050565b610ebc81610ea9565b82525050565b6000604082019050610ed76000830185610dc5565b610ee46020830184610eb3565b9392505050565b6000819050919050565b6000610f10610f0b610f0684610def565b610eeb565b610def565b9050919050565b6000610f2282610ef5565b9050919050565b6000610f3482610f17565b9050919050565b610f4481610f29565b82525050565b6000602082019050610f5f6000830184610f3b565b92915050565b6000602082019050610f7a6000830184610eb3565b92915050565b610f8981610ea9565b8114610f9457600080fd5b50565b600081359050610fa681610f80565b92915050565b600060208284031215610fc257610fc1610e4b565b5b6000610fd084828501610f97565b91505092915050565b600082825260208201905092915050565b7f4e6f742041756374696f6e2074696d6520796574000000000000000000000000600082015250565b6000611020601483610fd9565b915061102b82610fea565b602082019050919050565b6000602082019050818103600083015261104f81611013565b9050919050565b7f41756374696f6e206e6f74207374617274656400000000000000000000000000600082015250565b600061108c601383610fd9565b915061109782611056565b602082019050919050565b600060208201905081810360008301526110bb8161107f565b9050919050565b7f596f752063616e277420706172746963697061746520696e207468697320617560008201527f6374696f6e000000000000000000000000000000000000000000000000000000602082015250565b600061111e602583610fd9565b9150611129826110c2565b604082019050919050565b6000602082019050818103600083015261114d81611111565b9050919050565b7f596f75206e656564206d6f6e657920746f206269640000000000000000000000600082015250565b600061118a601583610fd9565b915061119582611154565b602082019050919050565b600060208201905081810360008301526111b98161117d565b9050919050565b7f596f75206e6565642063757272656e742062696420616d6d6f756e74206f722060008201527f6d6f7265206d6f6e657920746f20626964000000000000000000000000000000602082015250565b600061121c603183610fd9565b9150611227826111c0565b604082019050919050565b6000602082019050818103600083015261124b8161120f565b9050919050565b7f4e487b7100000000000000000000000000000000000000000000000000000000600052601160045260246000fd5b600061128c82610ea9565b915061129783610ea9565b92508282019050808211156112af576112ae611252565b5b92915050565b7f596f75206861766520616c7265616479206269646465642c207761697420666f60008201527f722074686520726573756c742100000000000000000000000000000000000000602082015250565b6000611311602d83610fd9565b915061131c826112b5565b604082019050919050565b6000602082019050818103600083015261134081611304565b9050919050565b600060608201905061135c6000830186610e21565b6113696020830185610e21565b6113766040830184610eb3565b949350505050565b7f5761697420666f722061756374696f6e20746f20656e64000000000000000000600082015250565b60006113b4601783610fd9565b91506113bf8261137e565b602082019050919050565b600060208201905081810360008301526113e3816113a7565b9050919050565b7f596f7520646f6e74206861766520616e79206d6f6e657920746f20776974686460008201527f7261770000000000000000000000000000000000000000000000000000000000602082015250565b6000611446602383610fd9565b9150611451826113ea565b604082019050919050565b6000602082019050818103600083015261147581611439565b9050919050565b7f496e76616c696420616464726573730000000000000000000000000000000000600082015250565b60006114b2600f83610fd9565b91506114bd8261147c565b602082019050919050565b600060208201905081810360008301526114e1816114a5565b905091905056fea2646970667358221220c69c978fee2ce1d63c7f17c8f2f4c5a68b790db706d201f63472fc07d1be337764736f6c63430008120033",
  "linkReferences": {},
  "deployedLinkReferences": {}
}